{
  "_format": "hh-sol-artifact-1",
  "contractName": "VotingMVP",
  "sourceName": "contracts/VotingMVP.sol",
  "abi": [
    {
      "inputs": [
        {
          "internalType": "uint256",
          "name": "_candidateCount",
          "type": "uint256"
        }
      ],
      "stateMutability": "nonpayable",
      "type": "constructor"
    },
    {
      "anonymous": false,
      "inputs": [],
      "name": "RegistrationClosed",
      "type": "event"
    },
    {
      "anonymous": false,
      "inputs": [
        {
          "indexed": true,
          "internalType": "address",
          "name": "voter",
          "type": "address"
        },
        {
          "indexed": false,
          "internalType": "uint256",
          "name": "candidateId",
          "type": "uint256"
        }
      ],
      "name": "VoteSubmitted",
      "type": "event"
    },
    {
      "anonymous": false,
      "inputs": [
        {
          "indexed": true,
          "internalType": "address",
          "name": "voter",
          "type": "address"
        }
      ],
      "name": "VoterRegistered",
      "type": "event"
    },
    {
      "inputs": [],
      "name": "candidateCount",
      "outputs": [
        {
          "internalType": "uint256",
          "name": "",
          "type": "uint256"
        }
      ],
      "stateMutability": "view",
      "type": "function"
    },
    {
      "inputs": [
        {
          "internalType": "uint256",
          "name": "",
          "type": "uint256"
        }
      ],
      "name": "candidateVotes",
      "outputs": [
        {
          "internalType": "uint256",
          "name": "",
          "type": "uint256"
        }
      ],
      "stateMutability": "view",
      "type": "function"
    },
    {
      "inputs": [],
      "name": "closeRegistration",
      "outputs": [],
      "stateMutability": "nonpayable",
      "type": "function"
    },
    {
      "inputs": [],
      "name": "getResults",
      "outputs": [
        {
          "internalType": "uint256[]",
          "name": "",
          "type": "uint256[]"
        }
      ],
      "stateMutability": "view",
      "type": "function"
    },
    {
      "inputs": [
        {
          "internalType": "address",
          "name": "",
          "type": "address"
        }
      ],
      "name": "hasVoted",
      "outputs": [
        {
          "internalType": "bool",
          "name": "",
          "type": "bool"
        }
      ],
      "stateMutability": "view",
      "type": "function"
    },
    {
      "inputs": [],
      "name": "owner",
      "outputs": [
        {
          "internalType": "address",
          "name": "",
          "type": "address"
        }
      ],
      "stateMutability": "view",
      "type": "function"
    },
    {
      "inputs": [
        {
          "internalType": "address",
          "name": "voter",
          "type": "address"
        }
      ],
      "name": "registerVoter",
      "outputs": [],
      "stateMutability": "nonpayable",
      "type": "function"
    },
    {
      "inputs": [
        {
          "internalType": "address",
          "name": "",
          "type": "address"
        }
      ],
      "name": "registeredVoters",
      "outputs": [
        {
          "internalType": "bool",
          "name": "",
          "type": "bool"
        }
      ],
      "stateMutability": "view",
      "type": "function"
    },
    {
      "inputs": [
        {
          "internalType": "uint256",
          "name": "candidateId",
          "type": "uint256"
        }
      ],
      "name": "submitVote",
      "outputs": [],
      "stateMutability": "nonpayable",
      "type": "function"
    }
  ],
  "bytecode": "0x608060405234801561001057600080fd5b50604051610e40380380610e40833981810160405281019061003291906100ba565b336000806101000a81548173ffffffffffffffffffffffffffffffffffffffff021916908373ffffffffffffffffffffffffffffffffffffffff16021790555080600481905550506100e7565b600080fd5b6000819050919050565b61009781610084565b81146100a257600080fd5b50565b6000815190506100b48161008e565b92915050565b6000602082840312156100d0576100cf61007f565b5b60006100de848285016100a5565b91505092915050565b610d4a806100f66000396000f3fe608060405234801561001057600080fd5b50600436106100935760003560e01c80637dc673bc116100665780637dc673bc1461011e5780638da5cb5b14610128578063a9a981a314610146578063a9ff6df114610164578063f49e323e1461019457610093565b806309eef43e146100985780632844328f146100c857806338db6dd3146100e45780634717f97c14610100575b600080fd5b6100b260048036038101906100ad91906107f2565b6101c4565b6040516100bf919061083a565b60405180910390f35b6100e260048036038101906100dd919061088b565b6101e4565b005b6100fe60048036038101906100f991906107f2565b610413565b005b6101086105cb565b6040516101159190610976565b60405180910390f35b610126610671565b005b61013061072d565b60405161013d91906109a7565b60405180910390f35b61014e610751565b60405161015b91906109d1565b60405180910390f35b61017e600480360381019061017991906107f2565b610757565b60405161018b919061083a565b60405180910390f35b6101ae60048036038101906101a9919061088b565b610777565b6040516101bb91906109d1565b60405180910390f35b60036020528060005260406000206000915054906101000a900460ff1681565b600160003373ffffffffffffffffffffffffffffffffffffffff1673ffffffffffffffffffffffffffffffffffffffff16815260200190815260200160002060009054906101000a900460ff16610270576040517f08c379a000000000000000000000000000000000000000000000000000000000815260040161026790610a49565b60405180910390fd5b600360003373ffffffffffffffffffffffffffffffffffffffff1673ffffffffffffffffffffffffffffffffffffffff16815260200190815260200160002060009054906101000a900460ff16156102fd576040517f08c379a00000000000000000000000000000000000000000000000000000000081526004016102f490610ab5565b60405180910390fd5b6004548110610341576040517f08c379a000000000000000000000000000000000000000000000000000000000815260040161033890610b21565b60405180910390fd5b6001600360003373ffffffffffffffffffffffffffffffffffffffff1673ffffffffffffffffffffffffffffffffffffffff16815260200190815260200160002060006101000a81548160ff0219169083151502179055506002600082815260200190815260200160002060008154809291906103bd90610b70565b91905055503373ffffffffffffffffffffffffffffffffffffffff167f98f81efbbc42e3175555266dc8fda4ea0859ca75447f118fdde2c72a2b8735f18260405161040891906109d1565b60405180910390a250565b60008054906101000a900473ffffffffffffffffffffffffffffffffffffffff1673ffffffffffffffffffffffffffffffffffffffff163373ffffffffffffffffffffffffffffffffffffffff16146104a1576040517f08c379a000000000000000000000000000000000000000000000000000000000815260040161049890610c2a565b60405180910390fd5b600160008273ffffffffffffffffffffffffffffffffffffffff1673ffffffffffffffffffffffffffffffffffffffff16815260200190815260200160002060009054906101000a900460ff161561052e576040517f08c379a000000000000000000000000000000000000000000000000000000000815260040161052590610c96565b60405180910390fd5b60018060008373ffffffffffffffffffffffffffffffffffffffff1673ffffffffffffffffffffffffffffffffffffffff16815260200190815260200160002060006101000a81548160ff0219169083151502179055508073ffffffffffffffffffffffffffffffffffffffff167fb6be2187d059cc2a55fe29e0e503b566e1e0f8c8780096e185429350acffd3dd60405160405180910390a250565b6060600060045467ffffffffffffffff8111156105eb576105ea610cb6565b5b6040519080825280602002602001820160405280156106195781602001602082028036833780820191505090505b50905060005b6004548110156106695760026000828152602001908152602001600020548282815181106106505761064f610ce5565b5b602002602001018181525050808060010191505061061f565b508091505090565b60008054906101000a900473ffffffffffffffffffffffffffffffffffffffff1673ffffffffffffffffffffffffffffffffffffffff163373ffffffffffffffffffffffffffffffffffffffff16146106ff576040517f08c379a00000000000000000000000000000000000000000000000000000000081526004016106f690610c2a565b60405180910390fd5b7f2fc209f3df2fb10c5fcb1620d3e5f067b9ef99813ca8fa6b24de0418bdac542060405160405180910390a1565b60008054906101000a900473ffffffffffffffffffffffffffffffffffffffff1681565b60045481565b60016020528060005260406000206000915054906101000a900460ff1681565b60026020528060005260406000206000915090505481565b600080fd5b600073ffffffffffffffffffffffffffffffffffffffff82169050919050565b60006107bf82610794565b9050919050565b6107cf816107b4565b81146107da57600080fd5b50565b6000813590506107ec816107c6565b92915050565b6000602082840312156108085761080761078f565b5b6000610816848285016107dd565b91505092915050565b60008115159050919050565b6108348161081f565b82525050565b600060208201905061084f600083018461082b565b92915050565b6000819050919050565b61086881610855565b811461087357600080fd5b50565b6000813590506108858161085f565b92915050565b6000602082840312156108a1576108a061078f565b5b60006108af84828501610876565b91505092915050565b600081519050919050565b600082825260208201905092915050565b6000819050602082019050919050565b6108ed81610855565b82525050565b60006108ff83836108e4565b60208301905092915050565b6000602082019050919050565b6000610923826108b8565b61092d81856108c3565b9350610938836108d4565b8060005b8381101561096957815161095088826108f3565b975061095b8361090b565b92505060018101905061093c565b5085935050505092915050565b600060208201905081810360008301526109908184610918565b905092915050565b6109a1816107b4565b82525050565b60006020820190506109bc6000830184610998565b92915050565b6109cb81610855565b82525050565b60006020820190506109e660008301846109c2565b92915050565b600082825260208201905092915050565b7f4e6f742061207265676973746572656420766f74657200000000000000000000600082015250565b6000610a336016836109ec565b9150610a3e826109fd565b602082019050919050565b60006020820190508181036000830152610a6281610a26565b9050919050565b7f416c726561647920766f74656400000000000000000000000000000000000000600082015250565b6000610a9f600d836109ec565b9150610aaa82610a69565b602082019050919050565b60006020820190508181036000830152610ace81610a92565b9050919050565b7f496e76616c69642063616e646964617465204944000000000000000000000000600082015250565b6000610b0b6014836109ec565b9150610b1682610ad5565b602082019050919050565b60006020820190508181036000830152610b3a81610afe565b9050919050565b7f4e487b7100000000000000000000000000000000000000000000000000000000600052601160045260246000fd5b6000610b7b82610855565b91507fffffffffffffffffffffffffffffffffffffffffffffffffffffffffffffffff8203610bad57610bac610b41565b5b600182019050919050565b7f4f6e6c79206f776e65722063616e2063616c6c20746869732066756e6374696f60008201527f6e00000000000000000000000000000000000000000000000000000000000000602082015250565b6000610c146021836109ec565b9150610c1f82610bb8565b604082019050919050565b60006020820190508181036000830152610c4381610c07565b9050919050565b7f566f74657220616c726561647920726567697374657265640000000000000000600082015250565b6000610c806018836109ec565b9150610c8b82610c4a565b602082019050919050565b60006020820190508181036000830152610caf81610c73565b9050919050565b7f4e487b7100000000000000000000000000000000000000000000000000000000600052604160045260246000fd5b7f4e487b7100000000000000000000000000000000000000000000000000000000600052603260045260246000fdfea264697066735822122015ff4d45fe12e856baf96111a0bc0305223b5e93dc1c2ea968b4d2a36149ab1964736f6c63430008160033",
  "linkReferences": {},
  "deployedLinkReferences": {}
}